:100000000C9434000C9451000C9451000C94510049
:100010000C9451000C9451000C9451000C9451001C
:100020000C9451000C9451000C9451000C9451000C
:100030000C9451000C9451000C9451000C945100FC
:100040000C9451000C9451000C9451000C945100EC
:100050000C9451000C9451000C9451000C945100DC
:100060000C9451000C94510011241FBECFEFD8E026
:10007000DEBFCDBF11E0A0E0B1E0E6EDF1E002C0EF
:1000800005900D92AE30B107D9F711E0AEE0B1E0C6
:1000900001C01D92A431B107E1F70E9453000C94F6
:1000A000E9000C9400008FEF84B987B98AEF8AB910
:1000B00080E895E20E948E0080E091E090930F012D
:1000C00080930E01909311018093100140E050E065
:1000D00020E030E089B1E82FF0E0E470F0704E17D6
:1000E0005F0741F0C901019663E070E00E94C20021
:1000F0009C01AF012130310549F02230310551F02A
:100100002115310529F75D9A5E9802C05D985E9AC7
:100110005F98E0CF5D985E985F9ADCCF9093C500C2
:100120008093C40088E18093C10086E08093C20080
:100130000895982F8091C00085FFFCCF9093C60052
:100140000895982F8091C00085FFFCCF9093C60042
:1001500080E090E008958091C00087FFFCCF8091FF
:10016000C60008958091C00087FFFCCF8091C60033
:1001700090E0089502C08091C6008091C00087FD84
:10018000FACF089597FB092E07260AD077FD04D0F1
:100190000CD006D000201AF4709561957F4F089519
:1001A000F6F7909581959F4F0895AA1BBB1B51E1CF
:1001B00007C0AA1FBB1FA617B70710F0A61BB70BD7
:1001C000881F991F5A95A9F780959095BC01CD017C
:0601D0000895F894FFCF32
:0E01D6000000000300000000A100B2000000C5
:00000001FF
